{
  "contractName": "Voting",
  "abi": [
    {
      "inputs": [
        {
          "internalType": "bytes32[]",
          "name": "candidateNames",
          "type": "bytes32[]"
        }
      ],
      "payable": false,
      "stateMutability": "nonpayable",
      "type": "constructor"
    },
    {
      "constant": true,
      "inputs": [
        {
          "internalType": "uint256",
          "name": "",
          "type": "uint256"
        }
      ],
      "name": "candidateList",
      "outputs": [
        {
          "internalType": "bytes32",
          "name": "",
          "type": "bytes32"
        }
      ],
      "payable": false,
      "stateMutability": "view",
      "type": "function"
    },
    {
      "constant": true,
      "inputs": [
        {
          "internalType": "bytes32",
          "name": "",
          "type": "bytes32"
        }
      ],
      "name": "votesReceived",
      "outputs": [
        {
          "internalType": "uint256",
          "name": "",
          "type": "uint256"
        }
      ],
      "payable": false,
      "stateMutability": "view",
      "type": "function"
    },
    {
      "constant": true,
      "inputs": [
        {
          "internalType": "bytes32",
          "name": "candidate",
          "type": "bytes32"
        }
      ],
      "name": "totalVotesFor",
      "outputs": [
        {
          "internalType": "uint256",
          "name": "",
          "type": "uint256"
        }
      ],
      "payable": false,
      "stateMutability": "view",
      "type": "function"
    },
    {
      "constant": false,
      "inputs": [
        {
          "internalType": "bytes32",
          "name": "candidate",
          "type": "bytes32"
        }
      ],
      "name": "voteForCandidate",
      "outputs": [],
      "payable": false,
      "stateMutability": "nonpayable",
      "type": "function"
    },
    {
      "constant": true,
      "inputs": [
        {
          "internalType": "bytes32",
          "name": "candidate",
          "type": "bytes32"
        }
      ],
      "name": "validCandidate",
      "outputs": [
        {
          "internalType": "bool",
          "name": "",
          "type": "bool"
        }
      ],
      "payable": false,
      "stateMutability": "view",
      "type": "function"
    }
  ],
  "bytecode": "0x608060405234801561001057600080fd5b506040516104223803806104228339818101604052602081101561003357600080fd5b810190808051604051939291908464010000000082111561005357600080fd5b8382019150602082018581111561006957600080fd5b825186602082028301116401000000008211171561008657600080fd5b8083526020830192505050908051906020019060200280838360005b838110156100bd5780820151818401526020810190506100a2565b5050505090500160405250505080600190805190602001906100e09291906100e7565b5050610159565b828054828255906000526020600020908101928215610123579160200282015b82811115610122578251825591602001919060010190610107565b5b5090506101309190610134565b5090565b61015691905b8082111561015257600081600090555060010161013a565b5090565b90565b6102ba806101686000396000f3fe608060405234801561001057600080fd5b50600436106100575760003560e01c80632f265cf71461005c578063392e66781461009e5780637021939f146100e4578063b13c744b14610126578063cc9ab26714610168575b600080fd5b6100886004803603602081101561007257600080fd5b8101908080359060200190929190505050610196565b6040518082815260200191505060405180910390f35b6100ca600480360360208110156100b457600080fd5b81019080803590602001909291905050506101c4565b604051808215151515815260200191505060405180910390f35b610110600480360360208110156100fa57600080fd5b8101908080359060200190929190505050610216565b6040518082815260200191505060405180910390f35b6101526004803603602081101561013c57600080fd5b810190808035906020019092919050505061022e565b6040518082815260200191505060405180910390f35b6101946004803603602081101561017e57600080fd5b810190808035906020019092919050505061024f565b005b60006101a1826101c4565b6101aa57600080fd5b600080838152602001908152602001600020549050919050565b600080600090505b60018054905081101561020f5782600182815481106101e757fe5b90600052602060002001541415610202576001915050610211565b80806001019150506101cc565b505b919050565b60006020528060005260406000206000915090505481565b6001818154811061023b57fe5b906000526020600020016000915090505481565b610258816101c4565b61026157600080fd5b6001600080838152602001908152602001600020600082825401925050819055505056fea265627a7a72315820ac9ba5af4014542836604f2600bd19cf949a8dc5082fcfa60de61d1f5ea24fad64736f6c63430005100032",
  "source": "pragma solidity >=0.4.22 <0.8.0;\r\ncontract Voting {\r\n    mapping (bytes32 => uint256) public votesReceived;\r\n    bytes32[] public candidateList;\r\n    constructor(bytes32[] memory candidateNames) public {\r\n        candidateList = candidateNames;\r\n    }\r\n    \r\n    function totalVotesFor(bytes32 candidate) public view returns(uint256) {\r\n        require(validCandidate(candidate));\r\n        return votesReceived[candidate];\r\n    }\r\n    \r\n    function voteForCandidate(bytes32 candidate) public {\r\n        require(validCandidate(candidate));\r\n        votesReceived[candidate] += 1;\r\n    }\r\n    \r\n    function validCandidate(bytes32 candidate) public view returns(bool) {\r\n        for(uint i=0; i<candidateList.length; i++) {\r\n            if(candidateList[i] == candidate) {\r\n                return true;\r\n            }\r\n        }\r\n    }\r\n}",
  "sourcePath": "D:/dev/solidity_work/voting2/contracts/Voting.sol",
  "compiler": {
    "name": "solc",
    "version": "0.5.16+commit.9c3226ce.Emscripten.clang"
  },
  "schemaVersion": "3.3.2",
  "updatedAt": "2020-12-09T00:26:34.581Z",
  "networkType": "ethereum",
  "devdoc": {
    "methods": {}
  },
  "userdoc": {
    "methods": {}
  }
}